:10000000EFE5F4E0D6C6BC42687373C00600FF0992
:1000100001A101150026FF00750885019501090160
:10002000B20201C009023900020100803209040055
:100030000002FF0000000705010308000A07058110
:100040000308000A0904010001030000000921015E
:10005000010001224E000705830308000A12011067
:100060000100000008C016B406051301020001D00B
:1000700087D08900686166746D616E6E23736F66E8
:100080007477617265005553422D7A752D4C50542A
:100090002D556D7365747A65722C204C6F772D53D6
:1000A0007065656400555342324C5054206C6F7734
:1000B0002D73706565642061646170746572000001
:1000C000A82FB92F80E090E041E050EA609530E041
:1000D00009C02D9182279795879510F08427952741
:1000E000305EC8F36F5FA8F30895EADF8D939D93A8
:1000F0000895CF93CFB7CF93C395B09BE9F7B09B4B
:1001000011C0B09B0FC0B09B0DC0B09B0BC0B09B8B
:1001100009C0C0919700C395C0939700C2B7C09320
:10012000B40046C1DF93C0919600DD27C256DF4F71
:10013000B09B02C0DF91E3CF2F930F931F9320E872
:10014000B09921604F933F930F92B09922601FEFB7
:100150003BE0022F220F00C0B0990C6020270870EE
:1001600046B311F4000037C0B2C040FFC89546B393
:10017000206800000227B09B0BC0287F11F046B317
:1001800087C046B31E7FB09BB19902C00993E8C0F7
:1001900040FDC89546B321604370B09908C0B1F3E3
:1001A000217F46B309F084C01D7F00C000C040FF1E
:1001B000C89546B322600000B09B08C0237E11F0B2
:1001C00046B384C046B31B7F00C000C040FDC89545
:1001D00046B324600993B09908C0277C11F046B358
:1001E00084C046B3177F00C000C040FFC89546B327
:1001F0002860012FB09B08C02F7811F046B384C04F
:1002000046B30F7E00C000C040FDC89546B32061D4
:100210001FEFB09908C02F7111F046B384C046B3E8
:100220000F7D00C000C040FFC89546B3206231502A
:1002300038F0B09B08C02F73223046B314F082C050
:100240008BC00F7BC89540FDC89546B32064000065
:10025000B0998BCF2F77243046B30CF008C00F77BE
:10026000000083CF40FDC89546B3206800000227F8
:10027000B0990AC0287F11F046B38ECF46B31E7FD7
:10028000B09BB19901C082CF40FFC89546B32160B1
:10029000217FB09B08C019F000C046B38DCF46B394
:1002A0001D7FC89500C040FDC89546B32260000080
:1002B000B09908C0237E11F046B38CCF46B31B7FA4
:1002C00000C000C040FFC89546B324600993B09BAE
:1002D00008C0277C11F046B38CCF46B3177F00C00F
:1002E00000C040FDC89546B32860012FB09908C0F2
:1002F0002F7811F046B38CCF46B30F7E00C000C0FC
:1003000040FFC89546B320611FEFB09B08C02F7116
:1003100011F046B38CCF46B30F7D00C000C040FD46
:10032000C89546B320623150B8F0B09907C02F731A
:10033000223046B30CF08CCF0F7BC89540FFC89598
:1003400046B32064B09B8ECF2F77243046B30CF099
:1003500011CF0F77000086CF10E218BF00271CC016
:100360003B503195C31BD04010E218BF0881033CBD
:1003700019F10B3409F1209194001981110F121316
:10038000EDCF4A81441F093671F10D3211F0013E63
:1003900029F74F7009F0042F00939C000F903F91B4
:1003A0004F911F910F912F91DF91C8B7C5FDA4CE3A
:1003B000CF91CFBFCF91189520919C00222371F34C
:1003C00010919A00112379F534307AF10093870067
:1003D00030939A0020939500109196003BE0311BDA
:1003E0003093960022C000919A000130E4F40AE5AF
:1003F0004F7049F43091600034FD18C000936000E4
:10040000CCE7D0E017C03091880034FD0FC00093D6
:100410008800C9E8D0E00EC0279598F4415099F4BF
:10042000220F0000F9CF3AE501C032ED032EC0E003
:10043000D0E032E017B31360C09A17BB08B320E4D2
:1004400013E0012746E008BB279520F4415021F432
:10045000220FF9CF012746E000C03B5A08BBE0F26B
:10046000279528F4415029F4220F0000F9CF0127E5
:1004700046E0279508BB20F4415021F4220FF9CF24
:10048000012746E029910000332308BB29F60C7FA1
:1004900010919B00110FC250D04008BB11F0109377
:1004A000940010E218BF016017B31C7F402F4C7FEF
:1004B000C895C89508BB17BB48BB70CF982F8091D3
:1004C0007300882319F490937500A89A9093740090
:1004D0009093730008953091670031FD16C020910C
:1004E0007200E22FFF27EE0FFF1FEB54FF4F9183A7
:1004F00080832F5F2F703E7F80917100281709F451
:10050000326020937200309367000895209171004B
:100510003091670030FF0CC021502F70E22FFF2771
:10052000EE0FFF1FEB54FF4F0190F081E02D15C03F
:10053000E22FFF27EE0FFF1FEB54FF4F2F5F0190BD
:10054000F081E02D2F703D7F80917200821709F4B9
:1005500031602093710030936700CF01089580913E
:10056000660085FF04C011BA8FEF82BB08958091A9
:10057000650082BB80916C0080FF03C082B38095D0
:1005800001C08FEF81BB0895EADF81E084BB8EE379
:1005900085BB809166009BE08927880F880F806C5F
:1005A00088BB8CE387BB0895982F31B328B39D99FE
:1005B0000CC0822F892388BB92FD02C08FEF81BBC4
:1005C00088E19D9907C08150E1F7809169008160C1
:1005D0008093690080B392FF31BB28BB99270895AF
:1005E000982F809168008C7421F0892F992773DFF0
:1005F0000895909365008091660085FD07C092BBC9
:1006000080916C0080FF02C0909591BB0895982F57
:100610008091680084FF07C090FD05C0809169004B
:100620008E7F809369009695969580916C0086FDEB
:1006300005C080E2982784B38095982B9E7385B37C
:100640008170892B85BB0895CF9390916800957038
:10065000C82FC06C9111CF7D909166009C27C093EC
:10066000660080916C0086FD04C095FD78DF8BE00C
:10067000C827CC0FCC0F8C2F806C88BB80916C006E
:1006800082FF03C0C095CC73C7BBCF91089582BBD6
:100690008BED8ADF089582BB83EF86DF0895982F64
:1006A000809168008C7421F0892F9927916013DF65
:1006B0000895282F887F856080936700229526956E
:1006C000277081E090E002C0880F991F2A95E2F719
:1006D000282F80936800332724FF02C08EEF01C0CB
:1006E0008FEF8093690025703070232B41F080914B
:1006F000660085FF04C08F7D8093660030DF109216
:10070000720010927100089581BB0895982F9695FC
:100710009695916C94BB80916C0086FD04C0909579
:1007200085B3892B85BB0895880F880F8C7387BB91
:100730000895682F657D80916C00862760936C001A
:10074000882329F1482F552740FF0FC0262F332734
:1007500026FD0BC08091660085FD07C020FF03C009
:1007600082B3809501C08FEF81BB42FF0CC0862F02
:10077000992786FD08C082FF04C088B380958C73DA
:1007800001C08CE387BB46FF02C066FFFDDE089513
:10079000809168008C7411F0B9DE01C080B3992794
:1007A000089593B3990F990F976080916C0086FD1F
:1007B00002C080E89827809169009823892F9927A3
:1007C0000895882311F088B301C086B3982F9695B9
:1007D00096959F7080916C0086FD02C08BE09827F3
:1007E00080916600807F982B892F992708958091AA
:1007F00068008C74E6DF992708958FEDD5DE992780
:10080000089587EFD1DE99270895809168008C7C48
:1008100019F42FEF30E008C087FF03C020E130E07B
:1008200003C074DE282F3327C90108958091670023
:100830009927089581B39927089584B3880F880F65
:10084000887F9927089587B3869586958F70992715
:10085000089580916C0099270895982F9F5F20E15B
:1008600030E040E050E0822F8A95F1F79150D9F7BF
:100870000895282F287F11F48BDF03C0283019F446
:1008800082B399270895203111F48BDFFACF2831F4
:1008900039F425B3220F220F2760822F992708955C
:1008A000203211F4A4DFEDCF283219F481E089DF82
:1008B000E8CF207F203A11F4B9DFE3CF203311F4E1
:1008C0009CDFDFCF822F99278F7C90708034910539
:1008D00011F497DFD6CF203811F497DFD2CF203C28
:1008E00011F4A8DFCECF203D11F4A7DFCACF203E00
:1008F00011F4A9DFC6CF203F11F4ABDFC2CF8FEFD9
:1009000090E00895282F207F19F4862F69DE08953E
:10091000203119F4862F7BDE0895203219F4862FBA
:1009200093DE0895203A19F4862FC3DE089520330C
:1009300019F4862FACDE0895822F99278F7C907052
:100940008034910519F4862FA6DE0895203819F415
:10095000862FA5DE0895203C19F4862FD5DE089554
:10096000203D19F4862FD2DE0895203E19F4862FFB
:10097000DBDE0895203F11F4862FDBDE08958F9291
:100980009F92AF92BF92CF92DF92EF92FF920F931E
:100990001F93CF936C01062F4A015A01662339F445
:1009A00080E090E0F7C0906190936200F0C084E630
:1009B00085DD90916200992329F09F7E109262005C
:1009C0000F5F03C0F60191916F0194FF3FC02FEFBD
:1009D000903111F4DDDE35C0913111F4E2DE31C029
:1009E000923111F404DF2DC0933111F406DF29C0D8
:1009F000892F8451843010F404DF23C0983111F41E
:100A000004DF1FC0993151F48091680087FF03C053
:100A100080E090E016C08FEF90E013C09A3111F49F
:100A200005DF0FC09C3111F405DF0BC09D3111F4BF
:100A300004DF07C09E3111F406DF03C09F3111F4BB
:100A400008DF282FF50121935F019EC0015009F4B2
:100A5000AACFF601C1916F01992319F48C2FC0DD43
:100A600093C0913019F48C2FD2DD8EC0923019F4DE
:100A70008C2FEADD89C09A3019F48C2F1ADE84C0DD
:100A8000933019F48C2F03DE7FC0892F845083307C
:100A900018F48C2F00DE78C0983019F48C2FFFDD0D
:100AA00073C09C3019F48C2F2FDE6EC09D3019F46A
:100AB0008C2F2CDE69C09E3019F48C2F35DE64C07B
:100AC0009F3019F48C2F35DE5FC0903219F48C2FD3
:100AD000C4DE5AC0913281F481E090E02C2F33279C
:100AE0002770307002C0880F991F2A95E2F7182FDF
:100AF0008C2FBFDE182B24C0923289F481E090E065
:100B00002C2F33272770307002C0880F991F2A9529
:100B1000E2F7182F8C2FADDE1095182311C09332F9
:100B200099F481E090E02C2F33272770307002C0B9
:100B3000880F991F2A95E2F7182F8C2F9ADE182715
:100B4000612F8C2FDFDE20C09432F1F4F0909700FB
:100B5000EE2481E090E04C2F55279A0127703070E9
:100B600002C0880F991F2A95E2F7182F43FF07C08C
:100B70008FEFE82E04C080919700F81629F48C2F8F
:100B800078DE8E258123B9F7015009F012CF8A2D26
:100B900088199927CF911F910F91FF90EF90DF90C7
:100BA000CF90BF90AF909F908F9008952091770045
:100BB000332729523F4FA901E2DE90917700980F29
:100BC000909377000895FC01A9E5B1E08491282F66
:100BD000332721153105A9F0319627FF0FC03327A0
:100BE0002F73307096E0220F331F9A95E1F78491AE
:100BF00099278F739070282B392B31962D933D9325
:100C0000E5CF87E591E09A2F981B9093570183E0F9
:100C100080935801892F992708958A3008F0895FB9
:100C2000805D99270895EF92FF921F93CF93DF93F2
:100C3000FC0120E0838199278330910509F445C0A8
:100C40008430910534F48130910559F0029759F1BF
:100C5000A2C08132910509F47DC0829709F483C056
:100C60009AC042E150E06DE570E087E591E03CD448
:100C700080916C0084FF6CC080916D0090916E003B
:100C8000A0916F00B09170000097A105B10509F423
:100C90005FC08F5F9F4FAF4FBF4F09F459C083E0D4
:100CA0008093670155C049E350E064E270E087E556
:100CB00091E01AD480916C0087FF05C082E0809398
:100CC000730180936C0129E366C08281992781308A
:100CD000910579F0823091051CF4892B39F05BC0C5
:100CE0008230910549F0039791F055C08FE690E06E
:100CF0000BC084E790E008C08481873019F486E84F
:100D000090E002C085EA90E05EDF282F44C082E1D7
:100D10008093570183E080935801C9E5D1E020E733
:100D2000E22E20E0F22EF70110810894E108F1088C
:100D3000812F82958F7071DF89931992812F8F7027
:100D40006CDF89931992FDE6EF16F0E0FF065CF781
:100D500022E121C049E050E06DE470E087E591E0D8
:100D6000C3D329E018C0C7E5D1E047E150E06CE00B
:100D700070E0CE01B9D3679612E04AE050E06AE134
:100D800070E0CE01B1D31D831B83198329961F5FA9
:100D9000183098F32EE487E591E0909399008093C2
:100DA0009800822F9927DF91CF911F91FF90EF90AC
:100DB0000895FEBFEDBF11241292E036F105E1F770
:100DC0008AE5809360008FEF8093610083EC8093CD
:100DD0007B00BB2494B7B4BE479A83E083BF85B73A
:100DE000806885BF93FF0BC086B39927837090708E
:100DF000892B29F085B78F78806285BF889589B760
:100E0000806289BF8BE4809389008AE580938800A3
:100E10007894EAE6F0E0A9EFBFEF87E0182E7ED3E2
:100E200080916C008F3F11F410926C0080916B00E8
:100E3000882319F08F3F09F081BF109265008CEC78
:100E400080936600A1DB80916A0099278F71907072
:100E5000892B19F080E280936A0080916A0029DC76
:100E6000C09068008C2D992782FF0CC0809167008C
:100E700080FD3DC09D993BC049DB82BBC29881E0AB
:100E8000ECDC2CC083FF2CC08091660085FF12C073
:100E90008091670081FD2BC0C39903C09C9927C036
:100EA000C39A9C9B24C080B399279D99916013DBC2
:100EB000C3981DC0C29B10C08091670080FD17C001
:100EC0009D9915C023DB82BB28B324738070892BC6
:100ED00009F0286028BBC2989D9B09C0C29A07C030
:100EE00086B3992783709070892B09F08895C090FC
:100EF0009700BC1431F486B3992783709070892BC6
:100F000009F4A89500919A00035007FD03C280914F
:100F100096004AEAE42E40E0F42EE81AF1088091A7
:100F200095008D3211F48AEFC9DA809195008031F5
:100F3000C0F580917B0090918700981709F0E4C17B
:100F400018E8912790937B0045ED50E0602FC70192
:100F500016DDC82F882309F4D7C1A5EDB0E0809134
:100F600088008E3109F4D0C18091880084FF06C0CA
:100F70008091890081278093890003C08AE580934E
:100F80008800EAE8F0E09C2F8D918193915019162A
:100F9000DCF36C2F8AE890E0A8D8CC5FC09388007F
:100FA000B3C18D3209F057C1083009F0ADC143EC2F
:100FB00040937C005AE55093600010926400D70182
:100FC0003C91832F8076E7012981882309F4C8C0EA
:100FD000209378008A819B8190937A008093790096
:100FE0008E819F81909356018093550187E591E012
:100FF0009093990080939800323071F4233009F077
:1010000069C08A81882309F065C08C81813009F02C
:1010100061C040937B00A1C0313249F4293009F00E
:1010200059C0F7018481813009F054C065C0313A5C
:1010300031F5213009F04EC0E7018C81813009F093
:1010400049C020917700222309F444C09091760092
:10105000E92FFF27EA52FF4FF0939900E0939800A1
:101060008A818083890F80937600821720F0109206
:10107000770010927600F70186819927B7C0303C3F
:1010800049F5622F6059653000F5C70102968EDD83
:1010900081EA8093780087ED90E090937A008093C6
:1010A000790080917700282F332780915501909106
:1010B00056012817390720F4309356012093550123
:1010C000109277001092760048C0215A233008F021
:1010D00044C012C0E7012981303489F4622F60597D
:1010E000653038F4C701029661DD80E980937800AD
:1010F00034C0215A223088F58FEF90E077C0222348
:1011000051F4F701828180935701838180935801C4
:1011100082E090E06BC0213091F4E7018A8188235E
:1011200011F436DB07C0813011F43BDB03C08230A1
:10113000A1F45DDB8093570181E090E057C022303D
:1011400061F4F7018281882319F4848149DA05C0AA
:10115000823019F4E7018C8177DA80E090E046C0B4
:10116000982FE5E8F0E0E7018A814C8190938500B3
:10117000222379F43F71323049F4413839F48091B7
:1011800088008E3109F491E090938500118292E0FD
:1011900047C0213011F0233081F4882309F040C08A
:1011A0004138F1F5213011F4852F01C08EE1809393
:1011B00088008BE48093890033C0253019F4809334
:1011C0009B002EC02630A1F4C0E4F701838181305A
:1011D00041F0823031F0833021F0813211F08232DF
:1011E00009F4C92FC7011FDDC0936400982F1CC0EC
:1011F000283019F4EDE9F0E009C0293029F4809392
:101200009D00509388000CC02A3011F491E008C072
:101210002B3031F48BE4809389008AE58093880039
:10122000F0939900E09398009F3F51F4D7018C917F
:1012300087FF02C0E7019E8180E88093640008C0B8
:10124000F7018781882321F46681691708F4962FB6
:101250009093610059C08091640087FF55C0F701E9
:10126000D02EC0917900D0917A00202F3327809121
:101270005501909156018217930710F4D0905501B3
:1012800080917800813A49F40D2D1127A801B7010A
:10129000CE0133D1C00FD11F1DC0823A59F490E066
:1012A0009D15C0F48191DE01082E3DD1A8952196AF
:1012B0009F5FF6CF803919F46D2DC70106C08930C4
:1012C00031F4D7016C91C701019670DC03C02FEF98
:1012D00030E010C0D0937A00C09379002D2D3327D1
:1012E0008091550190915601821B930B909356016A
:1012F000809355012F3F21F48EE18093600004C05C
:10130000222311F01092610080919A00181614F4B3
:1013100010929A008091600084FF8DC080916100DE
:101320008F3F09F488C0282F893008F028E0821BFD
:101330008093610080917C0098E8892780937C00ED
:101340003DE7E32E30E0F32E222309F462C08091C2
:10135000640087FF45C0022FC0917900D0917A00C8
:10136000332780915501909156018217930710F40D
:101370000091550180917800813A39F4802F9927A6
:10138000AC01BE01C701B9D018C0823A51F4802F18
:101390009927DE01F70101971CF0B8D00192FBCF2D
:1013A0000CC0833A39F4802F9927AC01BE01C701E4
:1013B0009BD003C02FEF30E02CC0202F3327C20F6B
:1013C000D31FD0937A00C0937900809155019091FA
:1013D0005601821B930B909356018093550119C0BF
:1013E000422FE0919800F091990086FF08C0849107
:1013F000D7018D937D0131964150C9F706C0819187
:10140000E70189937E014150D1F7F0939900E09371
:1014100098003327C22F293040F4622F8DE790E0E7
:1014200064D6CC5FCC3028F401C0CEE18FEF80933E
:101430006100C093600094E186B3837049F49150D9
:10144000D9F790939B00909394008AE5809388004D
:10145000BC1409F405CD8C2D8B19813091F4909139
:10146000B40080916300E92FE81B8E2F90936300F6
:10147000885C91B783300CF091508E3F0CF49F5FE5
:1014800091BFBC2C20917300222389F080917500BC
:10149000815031F485B391E0892785BB8091740038
:1014A000215009F4A8982093730080937500E19966
:1014B000D7CCABEFBFEF2AD0802D90916C0089176D
:1014C00029F0ABEFBFEF092E2ED0CACCAAEFBFEFA9
:1014D0001DD0902D81B7981709F4C2CCAAEFBFEFA9
:1014E00081B7082E20D0BCCCFB01DC0102C00590E6
:1014F0000D9241505040D8F70895FB01DC0102C025
:1015000001900D9241505040D8F70895E199FECFD7
:10151000BFBBAEBBE09A11960DB20895F7DF019202
:101520001A94E1F70895E199FECFBFBBAEBB0DBAA7
:0E15300011960FB6F894E29AE19A0FBE089554
:10180000EFE5F4E0FEBFEDBF54C002C20600FF09E1
:1018100001A101150026FF00750885019506092123
:10182000B20301850295830922B20201C009022296
:1018300000010100803209040000010300000009DA
:1018400021010100012221000705810308000A127D
:1018500001100100000008C016DF050001010200B0
:1018600001100348004900440042006F006F0074FB
:101870000012036F0062006400650076002E0061B4
:101880000074000403090401400000180000F894EB
:1018900081E187BFE89519BE1EBC13BE12BE81E070
:1018A0008BBF1BBEADC3A89580E099E10197F1F70E
:1018B000089511241292E036F105E1F78AE580934C
:1018C00060008FEF80936100E0E0F0E08491C29AC5
:1018D0008F5F823030F0DF017FD3802D823409F0BA
:1018E0007DC181E08BBF82E08BBFC0E08FEC81BF08
:1018F00083E083BF89B7806289BFB89AD4DFC150C3
:10190000E9F7B8987894A89520917800922F935091
:1019100097FD0AC180917500E8E8F0E0E81BF10945
:10192000809174008D3209F0A2C0983009F0FAC09D
:1019300083EC809368008AE58093600010926300D6
:10194000808180769181882329F1993091F4828178
:10195000823031F410926600BA9A8FEF90E073C033
:10196000A0E0B0E08FEF082E3FD381E080936700C6
:101970000EC0913061F480E48093630087E898E1C1
:10198000909377008093760087E090E05CC080E0E1
:1019900090E059C041E750E0228180937100992383
:1019A00021F48093720082E04AC0953019F42093AC
:1019B000790045C09630B1F5382F8381813021F40C
:1019C00032E18FE498E125C0823021F432E28DE2E9
:1019D00098E11FC0833091F4222321F434E083E89E
:1019E00098E117C0213021F432E181E798E111C07C
:1019F000223099F430E181E698E10BC0813221F484
:101A000039E08DE698E105C0823239F431E28CE0AC
:101A100098E1909377008093760080E48093630050
:101A2000832F11C0983019F44BE750E007C099306C
:101A300019F420937B0003C09A3009F481E050939D
:101A4000770040937600982F8F3F39F4808187FD8F
:101A5000968180E88093630007C08781882321F402
:101A60008681891708F4982F909361005BC080915C
:101A7000630087FF57C08F01F92EC0916400D09199
:101A8000650080916600882339F4C181D2810C5FA2
:101A90001F4F39EFF32EF20E8F0D8093660090E802
:101AA000E92EE822CE018F739070892B51F4F894BF
:101AB00083E0FE0187BFE895789407B600FCFDCF70
:101AC000F2DEF89481E0F801219131918F01090152
:101AD000FE0187BFE895112478949E012296CE01DD
:101AE0008F739070892B51F4F89485E0F90187BFCA
:101AF000E895789407B600FCFDCFD5DEFEEFFF0E2B
:101B000009F0D0CFD0936500C09364002E2D332709
:101B10002F3F21F48EE18093600004C0222311F056
:101B2000F0926100109278008091600084FF3DC0C7
:101B3000809161008F3FC9F1682F893008F068E01B
:101B4000861B809361008091680098E889278093C4
:101B50006800A9E6B0E06623B9F0962FE091760020
:101B6000F09177008091630086FF06C084918D9389
:101B700031969150D9F704C081918D939150E1F73E
:101B8000F0937700E09376007727C62F693038F41A
:101B900089E690E039D0CC5FCC3028F401C0CEE1AA
:101BA0008FEF80936100C093600094E186B38370EF
:101BB00031F49150D9F7909379009093730080910C
:101BC0006700882309F49FCEE1999DCE8091620041
:101BD000815080936200882309F095CE58DEA82FAB
:101BE000B92F80E090E041E050EA60956F5F58F4D3
:101BF0002D9138EF82279795879510F084279527A8
:101C00003F5FC8F3F3CF0895EADF8D939D93089566
:101C1000CF93CFB7CF93C395B09BE9F7B09B19C0D3
:101C2000B09B17C0B09B15C0B09B13C0B09B11C038
:101C3000BA990EC0DF93DD27C2B7D2BFC85CD1B757
:101C4000DA95C2301AF4CF3F12F4DE5FD1BFDF91D4
:101C500045C1DF93C0917500DD27C458DF4FB09BAD
:101C600002C0DF91DBCF2F930F931F9320E8B09931
:101C700021604F933F930F92B09922601FEF3BE09A
:101C8000022F220F00C0B0990C602027087046B3C5
:101C900011F4000036C0B4C040FFC89546B32068B8
:101CA00000000227B09B0AC0287F11F046B388C00D
:101CB00046B31E7FB09BB19901C06AC040FDC89574
:101CC00046B321604370B09908C0B9F3217F46B391
:101CD00009F087C01D7F00C000C040FFC89546B313
:101CE00022600000B09B08C0237E11F046B387C07D
:101CF00046B31B7F00C000C040FDC89546B32460BA
:101D00000993B09908C0277C11F046B387C046B349
:101D1000177F00C000C040FFC89546B32860012F60
:101D2000B09B08C02F7811F046B387C046B30F7E32
:101D300000C000C040FDC89546B320611FEFB099B8
:101D400008C02F7111F046B387C046B30F7D00C0A5
:101D500000C040FFC89546B32062315038F0B09BB8
:101D600008C02F73223046B314F085C08EC00F7B9D
:101D7000C89540FDC89546B320640000B0998CCF4B
:101D80002F77243046B30CF00AC00F77000084CFC1
:101D900009937FC040FDC89546B320680000022724
:101DA000B0990AC0287F11F046B38CCF46B31E7F8E
:101DB000B09BB19901C0ECCF40FFC89546B32160FC
:101DC0004370B09B09C0217F19F046B300008ACF51
:101DD00046B31D7F00C000C040FDC89546B3C1F2A8
:101DE0002260B09908C0237E11F046B389CF46B374
:101DF0001B7F00C000C040FFC89546B32460099314
:101E0000B09B08C0277C11F046B389CF46B3177F3B
:101E100000C000C040FDC89546B32860012FB099AE
:101E200008C02F7811F046B389CF46B30F7E00C0AB
:101E300000C040FFC89546B320611FEFB09B08C0AB
:101E40002F7111F046B389CF46B30F7D00C000C09B
:101E500040FDC89546B320623150B8F0B09907C034
:101E60002F73223046B30CF089CF0F7BC89540FF0B
:101E7000C89546B32064B09B8DCF2F77243046B3EE
:101E80000CF00FCF0F77000085CF10E218BF0027AE
:101E900019C03B503195C31BD04010E218BF0881D8
:101EA000033C01F10B34F1F0209173001981110F03
:101EB0001213EDCF4A81441F093649F10D3211F05A
:101EC000013E29F700937A000F903F914F911F91A7
:101ED0000F912F91DF91C8B7C5FD9DCECF91CFBF98
:101EE000CF91189520917A00222371F310917800F8
:101EF000112331F5343032F130937800209374009F
:101F0000109175003BE0311B309375001BC00091B0
:101F100078000130ACF40AE54F7049F4309160006C
:101F200034FD11C000936000C8E6D0E010C03AE56F
:101F30000AC0279598F4415099F4220F0000F9CF78
:101F40003AE501C032ED032EC0E0D0E032E017B335
:101F50001360C09A17BB08B320E413E0012746E0E2
:101F600008BB279520F4415021F4220FF9CF012717
:101F700046E0000000003B5A08BBD8F2279528F441
:101F8000415029F4220F0000F9CF012746E02795A0
:101F900008BB20F4415021F4220FF9CF012746E07D
:101FA00029910000332308BB21F60C7F10917900A2
:101FB000110FC250D04008BB11F01093730010E213
:101FC00018BF016017B31C7F402F4C7FC895C89580
:101FD00008BB17BB48BB78CFE199FECFBFBBAEBBF8
:101FE000E09A11960DB20895E199FECFBFBBAEBB4A
:101FF0000DBA11960FB6F894E29AE19A0FBE0895C1
:0400000300001800E1
:00000001FF
