:10000000EFE5F2E05DC41AC0BC42A82FB92F80E032
:1000100090E041E050EA609530E009C02D918227E0
:100020009795879510F084279527305EC8F36F5F0A
:10003000A8F30895EADF8D939D930895CF93CFB7EA
:10004000CF93C395189BE9F7189B0EC0189B0CC063
:10005000189B0AC0189B08C0189B06C0C091670176
:10006000C395C0936701A6C0DF93C0916601DD27E9
:10007000C259DE4F189B02C0DF91E6CF2F930F933A
:100080001F9303B12FEF00FB20F94F933F9313B160
:100090004FEF012700FB21F93BE031C04E7F012FDC
:1000A00013B1216028C0102F4D7F2260000003B1E2
:1000B00029C04B7F2460012F000013B12BC013B166
:1000C000477F28602AC04F7E03B120612CC04F7D3E
:1000D00013B120622FC04F7B03B1206432C042278E
:1000E00003B149934FEF0000102710FB20F913B123
:1000F0001370C9F1297F91F2012700FB21F903B1A7
:10010000237F89F2315058F1102710FB22F913B1E7
:10011000277E79F2012700FB23F92F7C81F203B1BE
:10012000102710FB24F92F7971F200C013B10127B9
:1001300000FB25F92F7359F200C003B1102710FB03
:1001400026F9223040F200C013B1012700FB27F945
:10015000243028F64F77206813B10000F9CF11E062
:100160001BBB00271CC03B503195C31BD04011E086
:100170001BBB0881033C11F10B3401F12091640198
:100180001981110F1213EDCF4A81441F093669F10D
:100190000D3211F0013E29F74F7009F0042F009342
:1001A0006C013F914F911F910F912F91DF91CBB334
:1001B000C0FD47CFCF91CFBFCF91189520916C0153
:1001C000222379F310916A01112379F534307AF101
:1001D0000093570130936A012093650110916601E5
:1001E0003BE0311B3093660122C000916A0101306F
:1001F000E4F40AE54F7049F43091000134FD19C070
:1002000000930001CCE4D1E018C03091580134FDD6
:1002100010C000935801C9E5D1E00FC02795A8F49C
:100220005150A9F4220F0000F9CF4AE503C042ED76
:1002300001C0432FC4E1D0E032E014B11360289A2A
:1002400014B905B120E413E05F93012756E005B926
:10025000279520F4515021F4220FF9CF012756E0C1
:1002600000003B5A05B9D0F2279528F4515029F4E3
:10027000220F0000F9CF012756E0279505B920F499
:10028000515021F4220FF9CF012756E02991332351
:1002900005B921F60C7F10916B01110FC651D040AA
:1002A00005B911F01093640111E01BBB016014B19A
:1002B0001C7F402F4C7F5F9100C000C005B914B96E
:1002C00045B96FCF982F80910601882319F4909338
:1002D0000801409A90930701909306010895352DE7
:1002E00051FC11C0292DE92DFF27EE0FFF1FEA5702
:1002F000FE4F918380832F5F2F703E7F281509F476
:100300003260922E532E0895282D352D50FE0BC0AD
:1003100021502F70E22FFF27EE0FFF1FEA57FE4FED
:10032000808191810895E82DFF27EE0FFF1FEA5786
:10033000FE4F2F5F808191812F703D7F921609F4CF
:100340003160822E532E089565FE04C01AB88FEFD7
:100350008BB908957BB820FE03C08BB1809501C096
:100360008FEF8AB90895F0DF81E087B98EE388B90D
:100370008BE08625880F880F85B98CE384B90895B2
:10038000982F3AB125B135990CC0822F892385B9B0
:1003900092FD02C08FEF8AB988E1359904C081507F
:1003A000E1F781E0382A89B192FF3AB925B9992756
:1003B0000895982F842D8C7421F0892F99278FDF31
:1003C0000895792E65FC05C09BB920FE02C090956A
:1003D0009AB90895CF93942D9570C82FC06C911140
:1003E000CF7D9C2F96256C2E26FC04C095FDACDF9E
:1003F0008BE0C827CC0FCC0FC5B922FE03C0C09537
:10040000CC7FC4B9CF910895282F887F35E0532E33
:10041000582A22952695277081E090E002C0880F27
:10042000991F2A95E2F7282F482E332724FF03C06F
:100430009EEF392E02C08FEF382E25703070232B9F
:1004400029F065FE03C08FED68227EDF9924892C98
:100450000895842D8C7411F057DF01C089B199275C
:10046000089596B1990F990F976026FC02C080E815
:1004700098279321892F99270895882311F085B112
:1004800001C083B1982F969596959F7026FC02C067
:100490008BE09827862D807F982B892F99270895A8
:1004A000842D8C74EADF99270895982F9F5F2FE0A1
:1004B00030E040E050E0822F8A95F1F79150D9F773
:1004C0000895282F287F11F4C4DF03C0283019F4C1
:1004D0008BB199270895203111F4C3DFFACF283169
:1004E00039F428B1220F220F2760822F992708950F
:1004F000203211F4D5DFEDCF283219F481E0BDDFD1
:10050000E8CF207F203A19F4852D992708952033CC
:1005100011F48FED08C0822F99278F7C9070803462
:10052000910519F487EF2CDFD4CF203881F4842D86
:100530008C7C19F42FEF30E008C087FF03C020E166
:1005400030E003C0E1DE282F3327822FC2CF2039CD
:1005500041F447FE03C080E090E0BBCF8FEF90E016
:10056000B8CF203C11F48AB1B4CF203D29F487B133
:10057000880F880F887FADCF203E29F484B18695FF
:1005800086958F70A6CF203F19F4822D9927089564
:100590008FEF90E00895282F207F19F4862F09DF30
:1005A0000895203199F444FE04C060FD02C08EEF2E
:1005B00038226695669526FC05C080E2682787B1DB
:1005C0008095682B6E7388B1817033C0203219F426
:1005D000862F00DF0895203A19F4862F15DF08953D
:1005E000203319F46BB98BED09C0822F99278F7CCA
:1005F00090708034910521F46BB983EFC1DE0895CA
:10060000203849F4842D8C7409F446C0862F99272C
:10061000916065DE0895203C11F46AB90895203D8B
:1006200059F466956695616C67B926FC35C060958E
:1006300088B1862B88B90895203E21F4660F660F95
:1006400064B90895203F41F5657D222D2627262E89
:1006500019F1422F552740FF0DC0262F332726FDC5
:1006600009C065FC07C020FF03C02BB1209501C065
:100670002FEF2AB942FF0CC0262F332726FD08C0D2
:1006800022FF04C025B120952C7301C02CE324B9AE
:1006900046FF02C066FF67DE0895AF92BF92CF9219
:1006A000DF92EF92FF920F931F93CF93DF93CDB71B
:1006B000DEB723970FB6F894DEBF0FBECDBF6C0137
:1006C000062F5A8349835A01662341F480E090E063
:1006D00071C080E1E82AE092040168C084E6F2DD9E
:1006E000E0900401EE2031F09FEEE9221092040127
:1006F0000F5F03C0F601E1906F01E4FE08C08E2D8C
:100700008295807FDEDEF50181935F014CC0015050
:1007100001F3F601F1906F01FFE0FE1528F06F2D57
:100720008E2D8295807F3EC080E2E81619F48F2DD1
:10073000BCDE39C08E2D81528430A8F54F2D55274F
:10074000CA018770907021E030E002C0220F331F91
:100750008A95E2F7122F94E2E916A1F4E09167017D
:10076000EB83EE2443FF08C04FEFE42E05C08091D9
:100770006701FB81F817B9F48F2DA3DE8E25812345
:10078000B1F711C08F2D9DDE682F81E28E1510F01C
:10079000612B07C092E2E91619F41095612301C09C
:1007A00061278F2DF8DE015009F09ACF8A2DE9815B
:1007B0008E1B992723960FB6F894DEBF0FBECDBFD0
:1007C000DF91CF911F910F91FF90EF90DF90CF902D
:1007D000BF90AF9008958A3008F0895F805D9927B7
:1007E0000895E9E0F1E020E4DC01122EE6D308955B
:1007F000EF92FF921F93CF93DF93FC0120E0C38120
:10080000C13049F480E090E0ECDF24FE49C083E091
:100810008093190145C0C23059F482E190E0E1DFD4
:1008200027FE04C0C0932501C0931E0120E23AC0F8
:10083000C330C1F59281992319F482E390E00FC08F
:10084000913019F488E390E00AC0923051F4848129
:10085000873019F480E990E002C08CE590E0C1DFB8
:100860001FC09330E9F4EE24FF2482E18093090154
:1008700090930A01CBE0D1E00894E108F108D70198
:1008800094D3802D182F82958F70A5DF89931992AC
:10089000812F8F70A0DF899319928CEFE81661F792
:1008A0002091090189E091E09093690180936801AA
:1008B000822F9927DF91CF911F91FF90EF9008959C
:1008C000FEBFEDBF11241292E036F105E1F79AE583
:1008D000909300018FEF8093020183EC80930101DC
:1008E000BB24B4BE88E10FB6F894809360001092E8
:1008F00060000FBE8FEE8093640080B7806880BF79
:1009000080916B00816080936B00809168008160B2
:10091000809368008BE480935901909358017894F8
:1009200083B7817F846083BF83B7816083BF83B1D6
:10093000992783709070892B09F0889583B7817F00
:100940008C6083BF88E190E028E00FB6F894A8950A
:10095000809360000FBE20936000ABEFBFEF25D304
:10096000802D282E8FEF281609F4222477247CEC82
:10097000672EF9DC80E248DD842D992782FF0AC0CA
:1009800050FC37C0359935C0BFDC8BB92A9881E05F
:100990008CDD26C083FF26C065FE10C051FC29C037
:1009A0002B9903C0349925C02B9A349B22C089B15E
:1009B00099273599916093DC2B981BC02A9B0EC018
:1009C00050FC17C0359915C09FDC8BB925B1247335
:1009D0008070892B09F0286025B92A98359B09C0B9
:1009E0002A9A07C083B1992783709070892B09F0E8
:1009F0008895C0906701BC1431F483B19927837046
:100A00009070892B09F4A89500916A01035007FDA5
:100A1000F5C1809166016AE7E62E61E0F62EE81ADC
:100A2000F108809165018D3211F48AEF4BDC8091E1
:100A300065018031C0F580910101909157019817AF
:100A400009F0D6C118E891279093010149E051E0DF
:100A5000602FC70122DEC82F882309F4C9C1A9E08D
:100A6000B1E0809158018E3109F4C2C180915801E2
:100A700084FF06C08091590181278093590103C0EA
:100A80008AE580935801EAE5F1E09C2F8D918193EE
:100A900091501916DCF36C2F8AE591E0CBDACC5F2C
:100AA000C0935801A5C18D3209F045C1083009F045
:100AB0009FC143EC40934C015AE5509300011092C2
:100AC0000501D7013C91832F8076E7012981882396
:100AD00009F4BBC0209349018A819B8190934B010B
:100AE00080934A018E819F819093A8018093A701F2
:100AF00084E891E09093690180936801323069F451
:100B0000233059F48A81882309F09CC08C8181307C
:100B100009F098C04093010195C0222351F4F701D8
:100B200082818093840183818093850182E090E0BB
:100B3000CDC0213099F4E7018A81882311F489DC42
:100B400008C0813011F48DDC04C0823009F07AC015
:100B5000A7DC8093840181E090E0B8C0223071F47A
:100B6000F7018281882319F4848123DC6BC08230F1
:100B700009F068C0E7018C812DDC64C0303C09F0CD
:100B800043C0622F6059653030F58091A6019927E6
:100B9000875F9E4FAC01C70102967FDD2091A601C1
:100BA000280F2093A60181EA8093490189E091E012
:100BB00090934B0180934A0133278091A701909134
:100BC000A8012817390720F43093A8012093A70122
:100BD0001092A60137C0822F815A833098F5233AAC
:100BE00071F580914A0190914B01069741F58091F2
:100BF000A7019091A801029711F588E090E09093E9
:100C00004B0180934A011BC03034E1F4622F6059DC
:100C1000653090F48091A6019927875F9E4FAC01C3
:100C2000C70102963ADD9091A601980F9093A60114
:100C300080E98093490106C0215A223018F48FEFD1
:100C400090E044C080E090E041C0982FE5E5F1E0FD
:100C5000E7018A814C8190935501222379F43F71F9
:100C6000323049F4413839F4809158018E3109F419
:100C700091E090935501118292E042C0213011F031
:100C8000233079F48823E1F54138D1F5213011F48E
:100C9000852F01C08EE1809358018BE48093590128
:100CA0002FC0253019F480936B012AC0263081F4BF
:100CB000C0E4F7018381813021F0823011F083306C
:100CC00009F4C92FC70194DDC0930501982F1CC0FA
:100CD000283019F4EDE6F1E009C0293029F48093B9
:100CE0006D01509358010CC02A3011F491E008C0F6
:100CF0002B3031F48BE4809359018AE580935801BD
:100D0000F0936901E09368019F3F51F4D7018C9102
:100D100087FF02C0E7019E8180E88093050108C03B
:100D2000F7018781882321F46681691708F4962FDB
:100D3000909302015DC08091050187FF59C0F701C2
:100D4000D02EC0914A01D0914B01202F33278091A2
:100D5000A7019091A8018217930710F4D090A701E2
:100D600080914901813A49F40D2D1127A801B7015D
:100D7000CE0112D1C00FD11F21C0823A59F490E0A8
:100D80009D15E0F48191DE01082E1CD1A8952196D5
:100D90009F5FF6CF803979F48091A6019927875F0C
:100DA0009E4FAC016D2DC70178DC9091A601980F84
:100DB0009093A60103C02FEF30E010C0D0934B01F9
:100DC000C0934A012D2D33278091A7019091A8014E
:100DD000821B930B9093A8018093A7012F3F21F4CE
:100DE0008EE18093000104C0222311F010920201D1
:100DF00080916A01181614F410926A018091000122
:100E000084FF8DC0809102018F3F09F488C0282F94
:100E1000893008F028E0821B8093020180914C0108
:100E200098E8892780934C015DE4E52E51E0F52E8A
:100E3000222309F462C08091050187FF45C0022F7B
:100E4000C0914A01D0914B0133278091A701909125
:100E5000A8018217930710F40091A701809149011E
:100E6000813A39F4802F9927AC01BE01C70194D093
:100E700018C0823A51F4802F9927DE01F7010197BB
:100E80001CF093D00192FBCF0CC0833A39F4802F31
:100E90009927AC01BE01C70176D003C02FEF30E027
:100EA0002CC0202F3327C20FD31FD0934B01C093E8
:100EB0004A018091A7019091A801821B930B909306
:100EC000A8018093A70119C0422FE0916801F09119
:100ED000690186FF08C08491D7018D937D01319609
:100EE0004150C9F706C08191E70189937E014150C5
:100EF000D1F7F0936901E09368013327C22F2930BD
:100F000040F4622F8DE491E095D8CC5FCC3028F48A
:100F100001C0CEE18FEF80930201C093000194E104
:100F200083B1837049F49150D9F790936B019093FA
:100F300064018AE580935801BC1409F41DCDBC2CD2
:100F400020910601222389F080910801815031F41B
:100F500088B191E0892788B980910701215009F46F
:100F600040982093060180930801F99905CDABEFD5
:100F7000BFEF1BD0802D821509F4FECCABEFBFEF85
:100F8000022C20D0F9CCFB01DC0102C005900D92AF
:100F900041505040D8F70895FB01DC0102C0019098
:100FA0000D9241505040D8F70895F999FECFB2BD47
:100FB000A1BDF89A119600B40895F7DF01921A9432
:100FC000E1F70895F999FECFB2BDA1BD00BC11961D
:0C0FD0000FB6F894FA9AF99A0FBE089533
:00000001FF
